:1000000000800020BD01000011A20100DDA101005F
:10001000DDA10100DDA10100DDA10100DDA10100E4
:10002000DDA10100DDA10100DDA1010011A201009F
:1000300011A20100DDA101001DB4010021B40100E5
:1000400011A2010011A2010011A2010011A20100E0
:1000500011A2010011A2010011A2010011A20100D0
:1000600011A2010011A2010011A2010011A20100C0
:1000700011A2010011A2010011A2010011A20100B0
:1000800011A2010011A2010011A2010011A20100A0
:1000900011A2010011A2010011A2010011A2010090
:1000A00011A2010011A2010011A2010011A2010080
:1000B00011A2010011A2010011A2010011A2010070
:1000C00011A2010011A2010011A2010011A2010060
:1000D00011A2010011A2010011A2010011A2010050
:1000E00011A2010011A2010011A2010011A2010040
:1000F00011A2010011A2010011A2010011A2010030
:1001000011A2010011A2010011A2010011A201001F
:1001100011A2010011A2010011A2010011A201000F
:1001200011A2010011A2010011A2010011A20100FF
:1001300011A2010011A2010011A20100CD8E010047
:1001400011A2010011A2010011A2010011A20100DF
:10015000359E01004D9E0100659E01007D9E0100BF
:1001600011A2010049A6010011A2010011A2010083
:1001700011A2010011A2010011A2010011A20100AF
:1001800011A2010011A2010011A2010011A201009F
:1001900011A2010011A2010011A2010011A201008F
:1001A00011A2010011A2010011A2010011A201007F
:1001B00011A2010011A2010011A20100584B4CF242
:1001C000205210B5DA814DF62812DA8100BF00BF47
:1001D0001AF022F8534B4FF010621A63524A9A6396
:1001E000524ADA63524A136913F4807302BF5361AF
:1001F0004FF4A85313614F4B9A78100748BF9A7871
:100200004D4844BF42F008029A704C4B2A221A70A3
:100210004B4BDA1C121AC11E22F00302994288BF0E
:100220000022484919F0E4FE474B4848DA1C121AEC
:10023000C11E22F00302994288BF0022002119F05A
:10024000ABFF434943484FF4DE7219F0D1FE424BF5
:10025000424A802103F8011B9342FBD14FF0E02377
:100260003C4AC3F8082D3E4B8A221A70A3F58053EE
:1002700024225A70A0221A709A799107FCD59A7993
:10028000D206FCD4374B9A7902F00C02082AFAD134
:1002900003221A7146225A719A799406FCD5314983
:1002A0008B795806FCD51F4B4FF082725A64092295
:1002B0009A6420220A708A7902F00C020C2AFAD180
:1002C000294A5A604FF0E023284A5A6100229A6175
:1002D00007221A61264AC3F8202D62B619F0F6FFEC
:1002E000134B5B69DA0705D5224819F0E3FF224B6F
:1002F000224ADA61224B1B785B0609D51E4C1F4B44
:10030000E2699A4204D11B4819F0D4FF0023E3614B
:1003100019F088FF1DF06EFA19F062FEFEE700BFCB
:100320000020054000800440823F04000100002BB3
:1003300000D0034000D00740308CFF1F00E0074092
:1003400024A3FF1FC8800200146A002028A3FF1FF7
:10035000000000000082FF1F00E400E05FE400E016
:100360000050064000400640C0100500BFD4010008
:1003700000002020ED1B726500E00340A5C3945AE5
:1003800000F00740FFFFFFFFFFFFFFFFFFFFFFFF42
:10039000FFFFFFFFFFFFFFFFFFFFFFFFFFFFFFFF6D
:1003A000FFFFFFFFFFFFFFFFFFFFFFFFFFFFFFFF5D
:1003B000FFFFFFFFFFFFFFFFFFFFFFFFFFFFFFFF4D
:1003C000FFFFFFFFFFFFFFFFFFFFFFFFFFFFFFFF3D
:1003D000FFFFFFFFFFFFFFFFFFFFFFFFFFFFFFFF2D
:1003E000FFFFFFFFFFFFFFFFFFFFFFFFFFFFFFFF1D
:1003F000FFFFFFFFFFFFFFFFFFFFFFFFFFFFFFFF0D
:10040000FFFFFFFFFFFFFFFFFFFFFFFFDEF9FFFF23
:100410000548064B1B1AD90F01EBA301491002D066
:10042000034B03B11847704724A3FF1F24A3FF1FEA
:100430000000000008B5054B1BB105490548AFF3A6
:100440000080BDE80840FFF7E3BF00BF00000000E8
:1004500028A3FF1FC880020070B5234C06464FF04A
:10046000FF322046002118F01FFC20464FF0FF32DB
:10047000102118F021FC20464FF0FF32042118F023
:1004800023FC20464FF0FF32032118F025FC4FF0EB
:10049000FF322046102118F027FC20464FF0FF3194
:1004A00018F032FC20464FF0FF3118F025FC2046B2
:1004B0004FF0FF3118F030FC0C4B00254FF0FF32AD
:1004C000112120461D60102418F02EFC084B09480D
:1004D0001E602246294619F05FFE2246294606483C
:1004E000BDE8704019F058BE48A3FF1F40A3FF1F8E
:1004F00044A3FF1FACA4FF1FBCA4FF1F884207DA60
:10050000044B1A68091A4FF44003B3FBF1F313814B
:10051000704700BF44A3FF1F014818F099BB00BFFC
:1005200048A3FF1F032810B5044615D818230B4A0B
:100530004343D15CFF290FD10121D15400F0C4FA0B
:10054000074B1B68162204FB0233821830F8021F87
:1005500023F8021B9042F9D110BD00BF28A5FF1F50
:10056000D4A4FF1F032810B40FD8182202FB00F1F7
:10057000074B00245C54074910BC02FB00331622D1
:1005800000FB0211981C19F033BD10BC704700BF6E
:1005900028A5FF1F9442002010B50024204600F03B
:1005A00093FA037833B9E0B2FFF7DCFF0134042C8F
:1005B000F4D110BDFF2BF9D1E0B2FFF7B3FFF5E79F
:1005C000014B185C704700BFCCA4FF1F03299CBFE0
:1005D000014B5854704700BFCCA4FF1F10B5002238
:1005E0000446D30024FA03F3D1B2D8B20132FFF7A4
:1005F000EDFF042AF5D110BD054A51781378D07863
:1006000043EA0123917843EA014343EA00607047DB
:10061000CCA4FF1F074B60221A70E1225A70064AD1
:10062000D36A43F48053D362044B802283F82120A1
:10063000704700BF004007400080044000C00C40ED
:10064000014B00B21880704700C00C4010B526491D
:10065000264A0C78C0F57F40FF302304FCB143F0FC
:10066000004343F016035363D36A03F47043B3F5B6
:10067000405FF9D809781D4A80B20B04F1B91C49D2
:100680000C6840F0C05023704FF08053D362506329
:10069000D36ADB00FCD50B6801221A7018E0144CF9
:1006A000246823704FF08053D36216235363D36AB8
:1006B00003F47043B3F5405FF9D8DBE7034343F03D
:1006C00080535363D36A03F47043B3F5405FF9D8A2
:1006D000064BDA6A12F0F00FFBD09A6BDA6A12F06E
:1006E000F00FFBD09B6B10BDF465002000C00240F2
:1006F000F865002010B52649264A0C78C0F57F40E1
:10070000FF302304FCB143F0004343F01403536370
:10071000D36A03F47043B3F5405FF9D809781D4AF2
:1007200080B20B04F1B91C490C6840F0C050237032
:100730004FF08053D3625063D36ADB00FCD50B6863
:1007400001221A7018E0144C246823704FF0805373
:10075000D36214235363D36A03F47043B3F5405F49
:10076000F9D8DBE7034343F080535363D36A03F4C0
:100770007043B3F5405FF9D8064BDA6A12F0F00F18
:10078000FBD09A6BDA6A12F0F00FFBD09B6B10BDB6
:10079000F465002000C00240F865002010B526492D
:1007A000264A0C78C0F57F40FF302304FCB143F0AB
:1007B000004343F012035363D36A03F47043B3F569
:1007C000405FF9D809781D4A80B20B04F1B91C4981
:1007D0000C6840F0C05023704FF08053D3625063D8
:1007E000D36ADB00FCD50B6801221A7018E0144CA8
:1007F000246823704FF08053D36212235363D36A6B
:1008000003F47043B3F5405FF9D8DBE7034343F0EB
:1008100080535363D36A03F47043B3F5405FF9D850
:10082000064BDA6A12F0F00FFBD09A6BDA6A12F01C
:10083000F00FFBD09B6B10BDF465002000C00240A0
:10084000F865002010B52649264A0C78C0F57F408F
:10085000FF302304FCB143F0004343F01003536323
:10086000D36A03F47043B3F5405FF9D809781D4AA1
:1008700080B20B04F1B91C490C6840F0C0502370E1
:100880004FF08053D3625063D36ADB00FCD50B6812
:1008900001221A7018E0144C246823704FF0805322
:1008A000D36210235363D36A03F47043B3F5405FFC
:1008B000F9D8DBE7034343F080535363D36A03F46F
:1008C0007043B3F5405FF9D8064BDA6A12F0F00FC7
:1008D000FBD09A6BDA6A12F0F00FFBD09B6B10BD65
:1008E000F465002000C00240F865002038B5134CC4
:1008F0002068FFF7ABFE6068FFF7FCFEA068FFF71B
:100900004DFFE068FFF79EFF0D490E4A0B68206817
:1009100022F8130003F10800656822F8105003F173
:100920001000A56822F8105003F118000133E468A4
:1009300022F8104003F007030B6038BDD8A4FF1F56
:10094000D0A4FF1FE8A4FF1F304B10B51860002093
:10095000FFF744FE2E4A536D126D012482F8804247
:100960004FF4A0721A601A6822F020021A600A205E
:10097000FFF750FE19F088FD264B27480021402242
:10098000196019F009FC254A2549D36B254843F421
:100990008053D363244B254A1A604FF03842DA6003
:1009A0004FF078421A614FF400720A6104702048D7
:1009B0001860204B1878C0074DBF1F494FF41072C4
:1009C0008A618A601A7812F0020F0CBF14491A4922
:1009D0004FF400720CBFCA61CA601B785B0755BF39
:1009E0000F4B154B4FF410724FF4007254BF5A6105
:1009F0005A60124A4FF6FF7383F31003136053607B
:100A00009360D360FFF772FF10BD00BFD4A4FF1F37
:100A10000C7B0200D0A4FF1FE8A4FF1F008004404D
:100A200000B00440F465002000C0024001401F8077
:100A3000000C1F80FC65002000C00440D8A4FF1FEC
:100A4000134AD36B43F48053D363124B4FF41072A9
:100A50009A615A61A3F5F8330F4A1A601A6842F492
:100A600040621A601A6812F4804F4FF0384004D088
:100A70004FF07842D8601A61704742F4804141F0EB
:100A8000010119604FF07841D86019611A60704710
:100A90000080044000B0044000001F8019F03ABA02
:100AA000F8B5074D074F0024182606FB04501822FE
:100AB0003946013419F09CFA042CF6D1F8BD00BF78
:100AC00028A5FF1FD0DF0100024B182202FB0030D7
:100AD000704700BF28A5FF1FF7B5244C2449254DBA
:100AE0000C23A3604FF47A730226009378223C23F0
:100AF0002046666019F01AF81F4966601623A36045
:100B00000B68A3FB05234A68A2FB05028968A1FBC9
:100B10000510642159433C27B1FBF7F1CDE90001F1
:100B20001649204619F002F81549666020234A68E4
:100B3000A360A2FB05320B68A3FB05038968A1FB38
:100B4000051510490095204618F0F0FF2A23A360F0
:100B50000D4A0E4B12681B680D496660204618F05E
:100B6000E5FF34236660A36003B0F0BDE0650020BC
:100B70000BE001002222220288A5FF1F1BE00100DA
:100B8000A8A5FF1F31E00100A4A5FF1F94A5FF1F2A
:100B900041E001002DE9F041214E224C224F234D2E
:100BA00032680C231188A3602A683B684FF0020862
:100BB000A1EB122220461E49C4F804801B0A18F03B
:100BC000B5FF3268C4F8048016235188A3606A68B0
:100BD0007B68A1EB1222204616491B0A18F0A6FFDB
:100BE0003268C4F8048020239188A360AA68BB6897
:100BF000A1EB1222204610491B0A18F097FF326819
:100C0000C4F804802A23D188A360EA68FB68A1EBBA
:100C1000122220460949BDE8F0411B0A18F086BFA0
:100C200044A3FF1FE0650020ACA4FF1FBCA4FF1F6E
:100C30004EE001005AE0010066E0010072E00100B0
:100C400037B5134C002240231146009320468023E1
:100C500018F0D3FC0023636020460C230D49A360E9
:100C600018F039FF0C480D494268022363601623CF
:100C7000A360A2FB01320368A3FB01538068A0FBC1
:100C8000010100912046064918F050FF03B030BD25
:100C9000E065002058E4010098A5FF1F22222202EF
:100CA0007EE001004FF0E02210B5D2F8FC3D43F0A9
:100CB0008073C2F8FC3DA2F550420124136843F052
:100CC000010313600F4BD3F8C420D3F8C0104FF4C6
:100CD000A07081F880421060116821F0200111603D
:100CE000D3F8CC20D3F8C83083F880421060136862
:100CF00023F020031360044B20229A604FF400225B
:100D00009A6410BD0C7B020000F00F402DE9F34106
:100D1000314D324E324F0446A846D6F80828D6F850
:100D20000C389B1A023326D0D6F8083803F001039A
:100D300003F5007356F82310E9B12948012218F091
:100D400098FAA5EB08020223D21001322549244863
:100D50007B60BB60032318F0E9FE2968204818F087
:100D6000BAFE6B6898471E4818F091FAD6F8083812
:100D70000133C6F808380021D4F8EC20D4F8F0305C
:100D80009A420FD10029C8D00023C4F8F030C4F82B
:100D9000EC30154B1B680193019BC4F8F83002B08E
:100DA000BDE8F081D4F8F03003F00F0204EBC2028A
:100DB0000133B2F86E20C4F8F030082A07D0042AB4
:100DC000DAD1AB682BB1EB681BB10835D4E7012150
:100DD000D2E7014DD0E700BFA8E00100C85D0020C8
:100DE000E06500208FE0010000660020074A002334
:100DF0004FF0FF31136051609360054A13605160FA
:100E00009360044A136051609360704788A5FF1F88
:100E1000A8A5FF1F98A5FF1F2DE9F041114D124E07
:100E20000424002740F2031828786968212808D88C
:100E300006EBC0035A6856F8303083F88072C2F867
:100E40000080022219F0BEFA013C05F10805EBD141
:100E5000064B1C60064B1C605C609C60DC60BDE85F
:100E6000F08100BFC8E001000C7B0200B4A5FF1FA9
:100E7000B8A5FF1F064BDA699B69002183F8801231
:100E800040F20313136003490222032019F09ABAB7
:100E90000C7B0200FD8CFF1F0D4A116811B100236D
:100EA00013600121536813B10023536002230B43E5
:100EB000916811B10021916004210B43D16811B1F7
:100EC0000021D1600821034A0B431360704700BF23
:100ED000B8A5FF1FB4A5FF1F2DE9F047164DDFF899
:100EE0005C90DFF85C8009244FF00C0AB4FBFAF048
:100EF0000AFB10401CF0E0F849461CF031F90646A8
:100F00001AF03EFB074630461AF06CFB4146064697
:100F100038461CF025F91CF0FFFA4146286030469F
:100F20001CF01EF91CF0F8FA0134152C686005F16C
:100F30000805DBD1BDE8F087C8A5FF1F920A063F70
:100F40000000E041F0B5094F00264FF0280C084D95
:100F50000FCD0CFB06740FC40FCD0FC495E8030032
:100F60000136042E84E80300F1D1F0BD28A7FF1F4D
:100F70002CE701000328D4BF044A054A4FF0280398
:100F8000C8BF043803FB0020704700BF28A7FF1F1D
:100F900004E701007047FFFF0278074B53F8323037
:100FA000027993F8003243EA4203DBB20371D8437B
:100FB00000F00100704700BF0C7B020001F001034C
:100FC000C1F3400180F84D3080F85D107047FFFF9D
:100FD0002DE9F347DFF82481494F04460E46D4F843
:100FE000EC20D4F8F0309A4215D1464B62681B6869
:100FF00000933C214A43009BD4F8F8105B1A9A42B4
:101000003CBF012384F8483094F8480080F0010088
:1010100002B0BDE8F087D4F8F03003F00F0004EB25
:10102000C0006A46016FC06E82E803000133B4F865
:101030004610C4F8F030BDF8023013EA01051CBFB9
:101040009943A4F8461094F8481018BF012519B127
:10105000002384F84830C2E7002DC0D19DF800007D
:10106000022839D0032846D001282ED1102B3ED19A
:101070003B682BB9082019F0EDF805604560386031
:10108000D7F80090DFF880A0D9F80420DAF8003013
:101090009B1A44F21912934213D8D9F800501B4BF3
:1010A0000135032DA8BF0025C9F80050022D186F87
:1010B0000FD0012D14BF80B2000CFFF7C1FAC9F8A0
:1010C0000050DAF80030C9F804300123C8F80030C5
:1010D00085E740F63C70F0E7012B06D194F84920F3
:1010E000002AF2D184F84830EFE7082B90D0B36A99
:1010F00010469847E9E7F36AFAE700BF2493FF1F19
:10110000C8A7FF1F00660020CC46002094420020A4
:101110002DE9F74F2C4F2D4D3B680093DDF80080F3
:10112000DFF8ACA004460E46B4F8443013F0040FC8
:1011300014BF4FF003094FF0010913F0080F03F03B
:101140000303A3F1030218BF4FF0020953425341B6
:1011500033703B680193DDF804B0D5F80828D5F862
:101160000C389B1A0233F8D0D5F8083803F0010385
:1011700003F5007355F823100029EED001225046E4
:1011800018F077F8D4F8EC20D4F8F0309A4214D163
:10119000504618F07CF8D5F80838ABEB080B013353
:1011A000BBF1630FC5F80838BED9B4F84430A4F8D1
:1011B0004630484603B0BDE8F08FD4F8F030013334
:1011C000C4F8F030DEE700BF00660020C85D0020F4
:1011D000E0650020044B82B01B680193019BC0F8BE
:1011E0008C3002B0704700BF0066002008B54FF495
:1011F0007A735943B1F5FA6F38BF4FF4FA61416021
:101200006C30FFF7E7FF08BDF8B5D0F8EC500446A6
:10121000D0F8F000401B103001BF0F4D286801309E
:1012200028600E4D286801302860D4F8EC5004F195
:101230006C0005F00F0700EBC70600F8371001350A
:10124000B380BDF818307280F380C4F8EC50C4F855
:10125000F450FFF7BFFFF8BDA4A5FF1F94A5FF1F23
:1012600000232DE9F041036046F2A81304464360D1
:101270006C30FFF7AFFF224E254604F128074FF0F0
:10128000FF0856F8040BC0B2A860022119F06CF8F0
:10129000083585F80480AF42F3D1002510220021E3
:1012A00004F1300018F078FF022116206564A4F8DC
:1012B000485019F059F84FF6FF760221152019F021
:1012C00053F802211020A4F84C5025656565A4F858
:1012D000586019F049F802210F2019F045F8C4F8B8
:1012E000F450A4F85C50C4F8F05025666566A4F884
:1012F0006860C4F8EC50C4F8F850BDE8F08100BF55
:10130000ACF3010008B518F005FEBDE80840024A3C
:10131000024903481BF0D2B92093FF1F950F00002C
:10132000CCA7FF1F431C30B5994200F1FF34C8BF62
:10133000D9B204EB441405462144094850F8210071
:101340006AB1B2FBF3F103FB11224FF0FF31A94068
:1013500020EA01009B1A20FA03F39040184330BDA5
:10136000C0F30100012303700023C0F82431C0F84A
:101370002831C0F82C31C0F8303120304FF46043B0
:1013800020F8023F80339BB2B3F5005FF8D170477D
:10139000F0B5044608462178B1B1811A94F83601B7
:1013A000A1F5406188B9D4F82C0188420DDCD4F84D
:1013B0003001884209DBD4F82801984205D1D4F8DD
:1013C0002401104400F54060F0BD0FFA81FC04F1E7
:1013D00028057B20002835DC04F12200281A45105E
:1013E000023D40F34F072DB24FF0FF304FF4804CD9
:1013F000BD4235DD04EB40060927B6F92250318C99
:10140000C5EBC50511FB07510911C4F82C11B6F93C
:10141000241001EBC10129440911C4F83011191835
:1014200009B27E29A8BF7E210129B8BF0121A4F8F5
:10143000341104EB4101B1F92200C4F82401C4F8CD
:101440002831BEE7461020F0010735F916E0E645E1
:101450002F44DDBF801BBD1C00F1FF303046B9E7D3
:1014600004EB4506B6F922608E1B002EB8BF76420B
:1014700036B2B445C8BF284605F10105C8BFB44619
:101480002DB2B5E7002902DAB0F9220070477F29B2
:1014900002DDB0F92001704700EB4100F4E70123C1
:1014A00080F8363170477047002070470020704741
:1014B000012802BF014B0022DA807047C0B1FF1F34
:1014C000014B1868704700BFD4460020014B1868D4
:1014D000704700BFE0460020014B1868704700BF0E
:1014E000D846002000F5EB60002303F0030201332F
:1014F000102B40F8042FF8D17047FFFF014B1868FC
:10150000704700BFDC460020064B5A68013A5A601B
:101510009A68013A9A60DA68013ADA601A69013A1F
:101520001A617047205A0020704770477047704713
:1015300070477047014B1868704700BFE4460020B1
:1015400000487047BC0302000023C36603673223D0
:10155000C0F88830C0F88C307047FFFF044B8360C0
:10156000044BC360044B0361044B4361704700BFED
:10157000C2030200D5030200E5030200F4030200E7
:10158000044B902202FB0030436FC3F10103436719
:10159000704700BFC8A8FF1F144A902303FB002315
:1015A00010B55C6FCCB9D3F88840214481F30801B1
:1015B000C3F888108B03FF21B3FBF1F348F2352108
:1015C0004B439B131121B3FBF1F3902101FB00224C
:1015D0009367074B1B68D36710BDD3F88C40214439
:1015E00081F30801C3F88C10E4E700BFC8A8FF1F0F
:1015F000CC460020044B902202FB0030C36DC3F1A7
:101600000103C365704700BFC8A8FF1F054B9022A8
:1016100002FB0033D3F88C00D3F8883043EA002073
:10162000704700BFC8A8FF1F0048704701040200B0
:10163000142202671E224267782282671922002341
:10164000C2674FF0FF32C366C0F88820C0F88C2014
:10165000C0F89030C0F89430A0F898307047FFFF81
:10166000044B8360044BC360044B0361044B436130
:10167000704700BF090402001A0402002A04020095
:101680003A040200054BA42202FB0030C36E013372
:10169000042BA8BF0023C366704700BFE8A9FF1F43
:1016A000124BA42202FB003084B0036F0093436FFF
:1016B0000193836F0293C26EC36F039304AB03EB7A
:1016C000820252F8103C0B44FF2BA8BFFF23012BD2
:1016D000B8BF012342F8103C009B0367019B43679E
:1016E000029B8367039BC36704B07047E8A9FF1F91
:1016F000044BA42202FB0030C36DC3F10103C36598
:10170000704700BFE8A9FF1F074BA42202FB00306F
:10171000836F426F1B0443EA0223026FC06F1343BF
:1017200043EA0060704700BFE8A9FF1F0048704708
:1017300042040200044B8360044BC360044B03610A
:10174000044B4361704700BF480402005904020083
:101750006B1102006A040200054B4FF4DA7202FBBF
:101760000030C36E0133022BA8BF0023C36670474D
:1017700030ABFF1F044B4FF4DA7202FB0030C36D35
:10178000C3F10103C365704730ABFF1F064B4FF435
:10179000DA7202FB00331A6FD3F8AC0192F801241D
:1017A00042EA0020704700BF30ABFF1F004870477F
:1017B00076040200044B8360044BC360044B036156
:1017C000044B4361704700BF800402009004020094
:1017D000A3040200B5040200084B4FF48A7202FB16
:1017E0000030074BC0F80031036F0133042BA8BF52
:1017F0000023036742F6E0638364704798AEFF1FDF
:1018000010090500044B4FF48A7202FB0030C36DCF
:10181000C3F10103C365704798AEFF1F0B4B4FF434
:101820008A7202FB0030D0F80C315A1ED0F8083111
:10183000013B1B0243EA0213D0F80421D0F8100147
:10184000013A1343013843EA0030704798AEFF1F56
:1018500000487047C70402003F230367436770478F
:10186000044B8360044BC360044B0361044B43612E
:10187000704700BFC8110200D0040200DE0402005D
:10188000EA040200064B03EBC010C36E0133042BC5
:10189000A8BF0023C36642F6E0638364704700BFBD
:1018A000C0B0FF1F134B03EBC01210B5D46E04EB96
:1018B000D472C2F34702400134F0020410440FD145
:1018C0001E3053F820200A443C2AA8BF3C226FF067
:1018D0003B018A42ACBF43F8202043F8201010BDE2
:1018E0001C3053F820200A4482F3060243F82020DB
:1018F000F5E700BFC0B0FF1F034B03EBC010C36D83
:10190000C3F10103C3657047C0B0FF1F084B03EB71
:10191000C010836F026F03F5807343EAC243426FC6
:10192000C06F43EA426300F5807043EA802070474D
:10193000C0B0FF1F00487047FD040200044B8360E5
:10194000044BC360044B0361044B4361704700BF09
:10195000070502001705020027050200C811020052
:1019600070477047044BE42202FB0030C36DC3F1A3
:101970000103C365704700BFC8B1FF1F0020704757
:101980007047FFFF0048704738050200044B836032
:10199000044BC360044B0361044B4361704700BFB9
:1019A000420502004B0502005C0502006B050200C7
:1019B000054B4FF4B67202FB0030C36E0133052BAA
:1019C000A8BF0023C366704790B3FF1F044B4FF4BA
:1019D000B67202FB0030C36DC3F10103C3657047EB
:1019E00090B3FF1F0B4B4FF4B67202FB0030D0F8E0
:1019F0005C31D0F860211B0343EA8213D0F85821F0
:101A00001343D0F8642190F9680143EA824343EA22
:101A10000060704790B3FF1F0048704776050200D2
:101A20003223C366002303677047FFFF044B8360C4
:101A3000044BC360044B0361044B4361704700BF18
:101A40007F0502008C05020094050200A305020038
:101A5000044B742202FB0030036FC3F101030367E0
:101A6000704700BF68B6FF1F064B742202FB0030B0
:101A7000C36E0B44642BA8BF642323EAE373C366DD
:101A8000704700BF68B6FF1F044B742202FB003092
:101A9000C36DC3F10103C365704700BF68B6FF1F84
:101AA000024B742202FB0033D86E704768B6FF1FEA
:101AB00000487047B30502000422C0F884200122C8
:101AC0000023C0F88C203222C366C0F88820436708
:101AD00080F87830C0F880307047FFFF044B836097
:101AE000044BC360044B0361044B4361704700BF68
:101AF000A9050200B9050200CC050200DB050200C1
:101B0000044B902202FB0030C36DC3F10103C36597
:101B1000704700BF50B7FF1F074B902202FB0033F6
:101B2000D3F88820D3F88400D3F88C3040EA022020
:101B3000083340EA0340704750B7FF1F0048704722
:101B4000EE050200044B8360044BC360044B036149
:101B5000044B4361704700BF80040200F40502009B
:101B6000050602001706020030B5104940F2FC637A
:101B700003FB0013DA6E032A0BD1D3F8F046002CD6
:101B8000C5BFB3F8F646B3F8F4560024641BA3F8B7
:101B9000FA46013240F2FC64042A04FB0011A8BF9B
:101BA0000022CA6642F6E0629A6430BD78B8FF1F30
:101BB000F0B52A4C40F2FC6303FB0043DA6EE2B955
:101BC000B3F9F466B3F9F676751803D47A1EAA420F
:101BD000A8BF2A4640F2FC6512B205FB00409642BF
:101BE000A0F8F42605D0B0F9FA2612B1521AA0F8DE
:101BF000FA2642F6E0629A64F0BD012A0BD0022A6E
:101C000025D0032AF5D1D3F8F0260A4482F3020244
:101C1000C3F8F026EDE7B3F9F656B3F9F4266E18DB
:101C20000132964204DB40F27F12B242A8BF324634
:101C300040F2FC6612B206FB00409542A0F8F62680
:101C4000D7D0B0F9FA26002AD3D00A44CFE700292A
:101C5000D4BF0021012183F8EC16CAE778B8FF1F32
:101C6000044B40F2FC6202FB0030C36DC3F1010380
:101C7000C365704778B8FF1F074B40F2FC6202FB58
:101C8000003090F8EC36B0F9F626B0F9F4069B0473
:101C900043EA42231843704778B8FF1F8842A8BF21
:101CA000084670478842B8BF084670470844B0F5F8
:101CB000F05FA8BF4FF4F05020EAE0707047884210
:101CC0000346A8BF0B468842ACBFC3EB0000C3EB82
:101CD00001007047084400EBD07040107047FFFFD0
:101CE0000048704728060200F0B5164C0023012278
:101CF00026460746C0F8AC30C0F8B020C0F8B43073
:101D0000A0F8B8300FCE8FB06D460FC596E807002B
:101D10001C3485E807000FCC07AD0FC594E8070019
:101D20001C2485E807002246694607F16C0018F07C
:101D30005FF922460DEB040107F1880018F058F90D
:101D40000FB0F0BD6C250200044B8360044BC360F0
:101D5000044B0361044B4361704700BF320602002D
:101D6000370602004306020054060200064BBC225E
:101D700002FB0030D0F8B430C3F10103C0F8B43036
:101D800042F6E0638364704770C6FF1F0C4BBC22B1
:101D900002FB003230B5D2F8B4402F2505FB0040DD
:101DA0002A3003EB8000224443680B44062BA8BF73
:101DB000062323EAE3734360002382F8B83030BD82
:101DC00070C6FF1F044BBC2202FB0030C36DC3F181
:101DD0000103C365704700BF70C6FF1F054BBC22DF
:101DE00002FB0033D3F8B000D3F8AC3043EA002054
:101DF000704700BF70C6FF1F004870475E060200B4
:101E0000044B8360044BC360044B0361044B436188
:101E1000704700BF800402006806020070060200DE
:101E20008206020030B5224CA82303FB0043DA6E81
:101E300002BB93F87030542505FB003204EB4202DC
:101E4000B2F87220114409B211F1180F0FDB3C29CE
:101E5000A8BF3C2105FB003304EB4303A3F8721039
:101E6000A82303FB0043012283F892200EE06FF0C9
:101E70001701EFE7012A0AD1D3F894200A44362A41
:101E8000A8BF362222EAE272C3F8942030BD022AAB
:101E9000E6D1D3F89C200A44182AA8BF18226FF074
:101EA00017018A42ACBFC3F89C20C3F89C10D7E747
:101EB000E8C7FF1F044BA82202FB0030C36DC3F12B
:101EC0000103C365704700BFE8C7FF1F054BA82289
:101ED00002FB0033D3F89C00D3F89830183043EA63
:101EE00000207047E8C7FF1F0048704795060200B2
:101EF0000123C366022200234367C3670267836727
:101F0000C0F88030C0F88830C0F884307047FFFFD8
:101F1000044B8360044BC360044B0361044B436177
:101F2000704700BF800402009F060200B006020056
:101F3000C0060200064B8C2202FB0030D0F8843031
:101F4000C3F10103C0F8843042F6E0638364704754
:101F500038C9FF1F30B51C4D8C2303FB0053D3F849
:101F60008440232303FB00431A3305EB83035A68A1
:101F70000A44082A1CDC12F1080F5A601ADBE2B18D
:101F8000232303FB004305EB8303DA66232303FBD0
:101F9000004404F11A0305EB83031C345A68511CF6
:101FA00008BF012205EB84055A6000236B6030BD39
:101FB0000822E5E76FF00702E2E70029CCBF012223
:101FC0006FF001025A60E1E738C9FF1F044B8C2211
:101FD00002FB0030C36DC3F10103C365704700BF4E
:101FE00038C9FF1F054B8C2202FB0033186FDB6ED4
:101FF0002030203343EA0020704700BF38C9FF1F5C
:1020000000487047C906020070477047024B836062
:10201000C360036143617047C8110200054B74221D
:1020200002FB0030C36E0133032BA8BF0023C3663D
:10203000704700BF50CAFF1F044B742202FB0030E0
:10204000C36DC3F10103C365704700BF50CAFF1FD2
:1020500000487047D2060200024BC36600230367A4
:102060004367704764004B00034B044A836003617D
:10207000034BC26043617047DC060200EB060200BE
:10208000A3050200054B7C2202FB003090F878305B
:10209000C3F1010380F87830704700BFC4CAFF1F46
:1020A0000E4B7C2202FB003230B592F878203E25A0
:1020B00005FB002403EB4404B4F86C40214409B24E
:1020C000002909DB6429A8BF642105FB002203EB7A
:1020D0004203A3F86C1030BD0021F6E7C4CAFF1F0D
:1020E000044B7C2202FB0030C36DC3F10103C365C6
:1020F000704700BFC4CAFF1F054B7C2202FB0033A0
:10210000B3F96E00B3F96C3043EAC010704700BFFA
:10211000C4CAFF1F00487047FA0602008023C36646
:10212000002303677047FFFF044B8360044BC360C9
:10213000044B0361044B4361704700BFC8110200A8
:10214000020702001407020027070200044B78224E
:1021500002FB0030C36E0B4483F30803C366704771
:10216000BCCBFF1F044B782202FB0030C36DC3F1D0
:102170000103C365704700BFBCCBFF1F024B782231
:1021800002FB0033D86E7047BCCBFF1F004870477E
:10219000310702007047FFFF044B8360044BC360AC
:1021A000044B0361044B4361704700BF3B070200CF
:1021B000440702004C0702005B070200054B7C222B
:1021C00002FB0030C36EC3F10103C36642F6E06355
:1021D00083647047ACCCFF1F044B7C2202FB0030B1
:1021E000C36DC3F10103C365704700BFACCCFF1FD3
:1021F000044B7C2202FB0033586F1B6F43EAC00084
:10220000704700BFACCCFF1F004870476607020054
:10221000044B8360044BC360044B0361044B436174
:10222000704700BF7007020082070200910702009A
:10223000A3070200084B4FF43E7202FB0030D0F8B7
:10224000E8320133042BA8BF0023C0F8E83242F67D
:10225000E0638364704700BFA4CDFF1F044B4FF4BD
:102260003E7202FB0030C36DC3F10103C3657047CA
:10227000A4CDFF1F094B4FF43E7202FB003090F8D3
:10228000F432D0F8F0221B0443EA0223D0F8EC2207
:1022900090F8F502134343EA00507047A4CDFF1FA6
:1022A00000487047AE070200044B8360044BC360D4
:1022B000044B0361044B4361704700BFB807020041
:1022C000C0070200E40C0200D3070200054B4FF4E4
:1022D000437202FB0030C36E0133042BA8BF0023FE
:1022E000C366704794D3FF1F044B4FF4437202FB45
:1022F0000030C36DC3F10103C365704794D3FF1F62
:10230000094B4FF4437202FB003090F8013390F810
:10231000B921DB0243EAC21390F9712090F804035B
:10232000134343EAC030704794D3FF1F00487047FF
:10233000E3070200002303674367034BC0F88C30B8
:10234000A62380F8783070470A0A0001044B8360A6
:10235000044BC360044B0361044B4361704700BFEF
:10236000C8110200D3040200ED070200F9070200C1
:10237000084B902202FB003090F86C300133DBB246
:10238000042B28BF002380F86C3042F6E06383649E
:10239000704700BF40E9FF1F104B902202FB003046
:1023A00090F86C30012B0FD8034493F88C20114423
:1023B0001F29A8BF1F210129B8BF012183F88C1054
:1023C00042F6E06383647047023B034493F88E2037
:1023D00082F0010283F88E20F2E700BF40E9FF1F80
:1023E000044B902202FB0030C36DC3F10103C365AF
:1023F000704700BF40E9FF1F004870470508020012
:1024000038B54FF4807504462A4600216C3017F029
:10241000C3FE2A46002104F5B67017F0BDFE4FF446
:102420007A73C4F86C32C4F870320023C4F8743282
:10243000C4F87832C4F87C3284F88032A4F882324E
:1024400038BDFFFF044B8360044BC360044B036142
:10245000044B4361704700BF0F0802001A080200D6
:102460002B08020037080200054B4FF4217202FBD3
:10247000003090F88032C3F1010380F88032704759
:1024800060EAFF1F154A4FF4217303FB002330B5A8
:1024900093F88042A12303FB004302EB8303D3F8AC
:1024A0006C32642B03DDB3F5FA7F10DC49000B447A
:1024B000A125B3F5FA6F05FB004402EB8402A8BF27
:1024C0004FF4FA6323EAE373C2F86C3230BDB3F51C
:1024D0007A7FD4BF8900C900E9E700BF60EAFF1F27
:1024E000044B4FF4217202FB0030C36DC3F10103B2
:1024F000C365704760EAFF1F054B4FF4217202FB72
:102500000033D3F87002D3F86C3243EAC02070472E
:1025100060EAFF1F00487047400802000023C366BE
:1025200003677047044B8360044BC360044B036133
:10253000044B4361704700BF4A0802005D08020077
:102540006F080200820802000A4B742202FB00306E
:10255000C36E19446429A8BF642121EAE171642390
:10256000C1668903B1FBF3F14FF4F053594389136A
:102570000167704768EFFF1F044B742202FB0030B5
:10258000C36DC3F10103C365704700BF68EFFF1F50
:1025900000487047920802000823C0F874384FF4CE
:1025A00000627F216C3017F0F7BDFFFF044B8360A2
:1025B000044BC360044B0361044B4361704700BF8D
:1025C0009C080200AF080200BD080200CF0802000C
:1025D000084B40F67C0202FB003090F86C3883F028
:1025E000010380F86C38002380F86E38C0F870382A
:1025F000704700BF54F0FF1F094B40F67C0202FBFE
:102600000030D0F8783803EB4113B3F5006FA8BF62
:102610004FF40063202BB8BF2023C0F878387047F0
:1026200054F0FF1F044B40F67C0202FB0030C36DE8
:10263000C3F10103C365704754F0FF1F08407047A2
:102640000843704748407047084080F001007047D9
:10265000084380F001007047484080F00100704757
:102660000020704700487047DE080200F0B5164CA5
:102670000023C0F8B830C0F8A43004F138060223B3
:102680000746C0F8A8300FCE8FB06D460FC596E84C
:102690000700543485E807000FCC07AD0FC594E858
:1026A00007001C2485E807002246694607F16C00F4
:1026B00017F09EFC22460DEB040107F1880017F08D
:1026C00097FC0FB0F0BD00BF6C250200044B836087
:1026D000044BC360044B0361044B4361704700BF6C
:1026E000E4080200F108020043060200540602005A
:1026F000064BBC2202FB0030D0F8B830C3F1010316
:10270000C0F8B83042F6E063836470474C010020A3
:102710000E4BBC2202FB003230B5D2F8B8202F2578
:1027200005FB002403EB8404D4F8A44021440729CA
:1027300009D00029B8BF062105FB002203EB820364
:10274000C3F8A41030BD0021F6E700BF4C01002003
:10275000044BBC2202FB0030C36DC3F10103C3650F
:10276000704700BF4C010020054BBC2202FB003328
:10277000D3F8A800D3F8A43043EA0020704700BF84
:102780004C010020004870470309020080230367C2
:10279000402343677047FFFF044B8360044BC360D3
:1027A000044B0361044B4361704700BF0D090200F5
:1027B0001E0902002B09020033090200044B7C228F
:1027C00002FB0030836FC3F101038367704700BFD2
:1027D000C4020020044B7C2202FB0030C36DC3F115
:1027E0000103C365704700BFC4020020054B7C2273
:1027F00002FB0030436F90F870001B029BB218433D
:10280000704700BFC4020020004870473C09020026
:102810007047FFFF034B8360C360034B0361034BAF
:1028200043617047C81102004609020058090200BE
:10283000044B742202FB0030C36DC3F10103C36576
:10284000704700BFBC030020004870475E090200CB
:102850007F2303677047FFFF044B8360044BC36013
:10286000044B0361044B4361704700BFC811020071
:10287000680902007409020085090200044B7422F1
:1028800002FB0030036F0B4483F3080303677047B8
:10289000A4040020044B742202FB0030C36DC3F17A
:1028A0000103C365704700BFA4040020024B7422DB
:1028B00002FB0033186F7047A404002000487047E3
:1028C0008D0902000021102380F8BC10C0F8C03030
:1028D000C0F8AC1040226C3017F05EBC044B836033
:1028E000044BC360044B0361044B4361704700BF5A
:1028F00098090200A8090200BB090200CE090200E3
:10290000074BCC2202FB0030D0F8B8300133032B48
:10291000A8BF0023C0F8B83042F6E0638364704774
:10292000340D0020174BCC2202FB0030D0F8B83019
:102930006BB9D0F8C4300B44642BA8BF642323EADE
:10294000E373C0F8C43042F6E06383647047012B40
:102950000DD0022BF7D1D0F8C0300B44102BA8BFFC
:102960001023022BB8BF0223C0F8C030EBE7D0F829
:10297000C8305B1A642BA8BF642323EAE373C0F852
:10298000C830E0E7340D0020044BCC2202FB0030BD
:10299000C36DC3F10103C365704700BF340D002050
:1029A000074BCC2202FB0033D3F8C820D3F8C40075
:1029B000D3F8C03040EAC210013B40EA8330704790
:1029C000340D002000487047E10902004FF44063D5
:1029D000A0F86E307047FFFF044B8360044BC36068
:1029E000044B0361044B4361704700BF480402007D
:1029F000EB090200F4090200030A02000C4A10B5B8
:102A0000702404FB0023B3F86E3003EBC11189B2CC
:102A1000B1F5C06F09D3B1F5F05FA8BF4FF4F05125
:102A200004FB0022A2F86E1010BD4FF4C061F7E75E
:102A3000CC0E0020044B702202FB0030C36DC3F1AA
:102A40000103C365704700BFCC0E0020034B70220A
:102A500002FB0033B3F86E00704700BFCC0E0020BD
:102A6000004870470D0A0200044B8360044BC360AA
:102A7000044B0361044B4361704700BF170A020017
:102A80002A0A02002F0A0200370A02000E4B30B554
:102A90004FF4D87404FB003292F8A85125B94D1CAC
:102AA00004BF012582F8A85104FB003090F8A8313A
:102AB0001944C9B21729A8BF172142F6E06380F86C
:102AC000A811936430BD00BFAC0F0020044B4FF43D
:102AD000D87202FB0030C36DC3F10103C3657047B8
:102AE000AC0F0020054B4FF4D87202FB0033B3F853
:102AF000A601B3F8A43143EA00307047AC0F0020C0
:102B000000487047470A02000023C3664367014B31
:102B100083677047800C800F044B8360044BC36055
:102B2000044B0361044B4361704700BFC8110200AE
:102B3000D0040200510A0200610A0200054B7C2207
:102B400002FB0030C26E022A02F1010308BF00231B
:102B5000C36670470C13002030B51B4C7C2303FB6D
:102B60000043DA6E012A17D1B3F8782002EB811105
:102B700089B23F29B3F87A200CD9403A8A42A8BFDB
:102B80000A467C2101FB0041A1F8782042F6E06270
:102B90009A6430BD4022F4E7022AF7D1B3F87A20D4
:102BA000B3F8785002EB8111403589B28D4205DCD3
:102BB000B1F5F05FA8BF4FF4F0510D467C2202FB47
:102BC0000044A4F87A50E1E70C130020044B7C2267
:102BD00002FB0030C36DC3F10103C365704700BF42
:102BE0000C130020024B7C2202FB0033986F7047CD
:102BF0000C13002000487047710A0200064B1B6846
:102C0000C3664FF4A07200230367C0F8BC2080F8AD
:102C10007830C0F8CC307047CC460020044B83603D
:102C2000044BC360044B0361044B4361704700BF16
:102C3000770A0200370602008A0A0200960A02009A
:102C4000054BD02202FB003090F8783083F001036E
:102C500080F87830704700BF0414002010B50F4A88
:102C6000D02303FB0023D3F8BC301F2BCABF0A2498
:102C70005B1804FB0133B3F57A4FA8BF4FF47A43D6
:102C8000D02101FB0020022BB8BF0223C0F8BC30CA
:102C9000034B1B68C0F8C83010BD00BF04140020EF
:102CA000CC460020044BD02202FB0030C36DC3F1A0
:102CB0000103C365704700BF04140020004870473B
:102CC000A90A0200044B8360044BC360044B0361F8
:102CD000044B4361704700BF80040200B30A020046
:102CE000BF0A0200D10A0200054B902202FB00300D
:102CF000C26E042A02F1010308BF0023C3667047B5
:102D0000A4150020184BF0B5902505FB00352426AE
:102D1000EA6E06FB002403EB8404676F0124C919E3
:102D200004FA02F40ED5002A0CDD95F87020224337
:102D3000D2B2902101FB003383F87020012283F886
:102D40008C20F0BD1E2906FB002203EB8202A8BFE7
:102D50001E2121EAE1715167902202FB003292F8B4
:102D6000702022EA0402E4E7A4150020044B90221C
:102D700002FB0030C36DC3F10103C365704700BFA0
:102D8000A41500200B49902303FB0013002230B54B
:102D90007033144653F8045F95400532192A44EA0B
:102DA0000504F7D1902303FB001191F8700044EA69
:102DB000406030BDA415002000487047D60A0200CC
:102DC000044B8360044BC360044B0361044B4361B9
:102DD000704700BF48040200E00A0200F30A020044
:102DE000040B0200054B782202FB0030C36E013356
:102DF000042BA8BF0023C366704700BF4417002000
:102E0000154B782202FB003210B5D46E012CE2B2D1
:102E10001EDC00247AB9782202FB0033234493F9A4
:102E2000742011441029A8BF10210129B8BF012125
:102E300083F8741010BD012AFCD1782202FB003304
:102E4000234493F8762082F0010283F87620F1E79C
:102E5000023AD2B20124DDE744170020044B782265
:102E600002FB0030C36DC3F10103C365704700BFAF
:102E7000441700200C4B782202FB003090F877308A
:102E800090F876205B0243EA0223B0F8702043EA10
:102E9000024390F9742090F97500013A1343013808
:102EA00043EA0010704700BF4417002000487047F5
:102EB000100B020000230122C0F8803080F870302F
:102EC000C26643677047FFFF044B8360044BC360D7
:102ED000044B0361044B4361704700BF8004020050
:102EE000180B0200290B0200310B0200044B842254
:102EF00002FB0030C36EC3F10103C366704700BF1D
:102F0000341800200D4A842303FB002330B5DB6E08
:102F1000422505FB0034403432F81440214409B204
:102F2000002908DB6329A8BF632105FB0033403378
:102F300022F8131030BD0021F7E700BF341800203D
:102F4000044B842202FB0030C36DC3F10103C3654F
:102F5000704700BF34180020054B842202FB003369
:102F6000B3F98200B3F9803043EAC010704700BF64
:102F70003418002000487047400B02003D23C36610
:102F800003670023436783677047FFFF044B836039
:102F9000044BC360044B0361044B4361704700BFA3
:102FA0004A0B0200520B0200640B0200710B02007C
:102FB000044B842202FB0030436FC3F101034367DB
:102FC000704700BF3C190020044B842202FB0030F4
:102FD000C36DC3F10103C365704700BF3C190020F6
:102FE000044B842202FB0033D86E1B6F43EA00209F
:102FF000704700BF3C190020004870477B0B02005F
:103000000023436783673223C36603677047FFFF6C
:10301000044B8360044BC360044B0361044B436166
:10302000704700BF800B0200930B0200A50B02004B
:10303000B40B0200044B882202FB0030C36FC3F1C3
:103040000103C367704700BF441A0020164A882353
:1030500003FB002310B5DC6FE4B9DC6E2144C82902
:10306000A8BFC82121EAE171D9668B03C821B3FB4F
:10307000F1F34FF47A414B439B131121B3FBF1F36E
:10308000882101FB0022C2F88030084B1B68C2F87F
:10309000843010BD1C6F2144C829A8BFC82121EA73
:1030A000E1711967E1E700BF441A0020CC46002017
:1030B000044B882202FB0030C36DC3F10103C365DA
:1030C000704700BF441A0020044B882202FB0033E3
:1030D000186FDB6E43EA0020704700BF441A0020DF
:1030E00000487047BE0B0200044B8360044BC36072
:1030F000044B0361044B4361704700BFC60B0200E1
:10310000D90B0200EC0B0200FA0B0200054B4FF446
:10311000DE7202FB0030C36E0133032BA8BF002315
:10312000C3667047541B0020044B4FF4DE7202FB51
:103130000030C36DC3F10103C3657047541B002009
:10314000084B4FF4DE7202FB0030B0F9BA31B0F92F
:10315000B821D0F8B401303330321B0443EA0223E3
:1031600018437047541B002000487047060C0200AB
:103170000123036743677047044B8360044BC360BC
:10318000044B0361044B4361704700BF0D0C020008
:103190001C0C0200230C0200C8110200044B782210
:1031A00002FB0030C36DC3F10103C365704700BF6C
:1031B000CC1E002000487047350C02000023C36677
:1031C0007047FFFF044B8360044BC360044B0361F3
:1031D000044B4361704700BF3F0C0200510C0200DA
:1031E0005D0C02006D0C0200064B8C2202FB0030CD
:1031F000C36E0133042BA8BF0023C36642F6E0630D
:1032000083647047BC1F0020044B8C2202FB0030FB
:10321000C36DC3F10103C365704700BFBC1F00202D
:10322000094B8C2202FB0030436F03F10902836FCC
:1032300009339B0243EA4213026FC06F0932134302
:103240001B3043EAC0307047BC1F00200048704765
:103250007C0C0200044B8360044BC360044B03618D
:10326000044B4361704700BF850C0200960C0200BE
:10327000A70C0200BA0C0200054B4FF4DC7202FBF3
:103280000030036F0133032BA8BF0023036770478F
:10329000D4200020044B4FF4DC7202FB0030C36DDD
:1032A000C3F10103C3657047D4200020094B4FF4DC
:1032B000DC7202FB003090F9B431D0F8B021DB06AB
:1032C00043EA0243B0F8AC21C06E1343013843EA2D
:1032D000C0507047D420002000487047CC0C02003A
:1032E0000023C0F88C30C0F89030A0F896304FF42E
:1032F0008072C0F888302823A0F89820C0F89C304D
:103300007047FFFF044B8360044BC360044B0361B1
:10331000044B4361704700BFC8110200D50C020086
:10332000E00C0200EF0C0200064BA02202FB003072
:10333000C36E0133032BA8BF0023C36642F6E063CC
:103340008364704754260020044BA02202FB003007
:10335000C36DC3F10103C365704700BF542600204D
:10336000074BA02202FB0030D0F89C3090F8992047
:1033700090F898001B0243EA02131843704700BFFD
:103380005426002000487047020D0200044B836061
:10339000044BC360044B0361044B4361704700BF9F
:1033A000800402000A0D02001A0D02006D0C0200DA
:1033B000074B842202FB0030D0F880300133062B0B
:1033C000A8BF0023C0F8803042F6E06383647047F2
:1033D0008C28002070B50D461949842202FB00128A
:1033E000D2F88060022ECCBF6FF002040024344477
:1033F000CCBF01230023022C0BD100EB401018445A
:103400001E3051F820302B4483F3030341F8203061
:1034100070BD1A44A10092F8743043FA01F12944B6
:1034200001F00F012CB923F00F03194382F8741037
:10343000EEE703F00F0303EB011382F87430E7E7C4
:103440008C280020044B842202FB0030C36DC3F1A2
:103450000103C365704700BF8C280020084B8422FD
:1034600002FB0030836F90F875201B0443EA0223AF
:1034700090F87420C06F134343EAC040704700BF08
:103480008C280020004870472A0D0200044B8360FE
:10349000044BC360044B0361044B4361704700BF9E
:1034A000800402000A0D0200340D02006D0C0200BF
:1034B000064B7C2202FB0030836F0133052BA8BF33
:1034C0000023836742F6E0638364704794270020FB
:1034D000044B7C2202FB0030C36DC3F10103C365C2
:1034E000704700BF94270020064B7C2202FB00306F
:1034F000436F90F8712090F870001B0443EA022398
:10350000184370479427002000487047440D02007C
:103510008822034B50431A5818445268104700BF82
:1035200098290020094B882202FB0030D0F8843013
:103530000B44B3F5FA7FA8BF4FF4FA73B3F5C87F15
:10354000B8BF4FF4C873C0F8843070479829002082
:10355000044B882202FB0030C36DC3F10103C36535
:10356000704700BF98290020034B882202FB0033DC
:10357000D3F88400704700BF9829002000487047A6
:103580004A0D0200044B8360044BC360044B03618B
:10359000044B4361704700BF530D0200C811020085
:1035A0005C0D0200640D0200054B4FF48A7202FBB1
:1035B0000030C36E0133042BA8BF0023C3667047DD
:1035C000B02A0020044B4FF48A7202FB0030C36D16
:1035D000C3F10103C3657047B02A00200A4B4FF4C2
:1035E0008A7202FB0030D0F80831D0F810219B011C
:1035F00043EA8253D0F804211343D0F80C21034846
:1036000000EA023018437047B02A002000F03F0063
:1036100000487047730D0200044B8360044BC36085
:10362000044B0361044B4361704700BF7D0D0200F2
:10363000860D0200990D0200640D0200054B4FF447
:10364000887202FB0030C36E0133042BA8BF002335
:10365000C3667047D82C0020044B4FF4887202FBDD
:103660000030C36DC3F10103C3657047D82C00203F
:103670000A4B4FF4887202FB0030D0F80431D0F8C6
:103680000C219B0143EA8253D0F800211343D0F868
:103690000821034800EA023018437047D82C002064
:1036A00000F03F0000487047A80D0200044B836003
:1036B000044BC360044B0361044B4361704700BF7C
:1036C000B20D0200BE0D02005C0D0200640D02008E
:1036D000054B4FF4887202FB0030C36E0133042B9C
:1036E000A8BF0023C3667047F82E0020044B4FF498
:1036F000887202FB0030C36DC3F10103C3657047DC
:10370000F82E00200A4B4FF4887202FB0030D0F8EC
:103710000431D0F80C219B0143EA8253D0F80021F8
:103720001343D0F80821034800EA023018437047D9
:10373000F82E002000F03F0000487047C80D02003E
:10374000044B8360044BC360044B0361044B43612F
:10375000704700BFC8110200D20D02005C0D0200CC
:10376000DC0D0200054B4FF48E7202FB0030C36E7D
:103770000133042BA8BF0023C36670471831002013
:10378000044B4FF48E7202FB0030C36DC3F1010392
:10379000C3657047183100200B4B4FF48E7202FB4B
:1037A0000030D0F81031D0F80C211B0343EA82130B
:1037B000D0F808211343D0F8142190F8180143EAF7
:1037C000425343EA80707047183100200048704728
:1037D000EB0D02003C2343676FF023038367002354
:1037E000A0F87C307047FFFF044B8360044BC3603C
:1037F000044B0361044B4361704700BFF30D0200AB
:10380000C8110200FC0D0200080E0200064B03EB7B
:10381000C010C36E0133042BA8BF0023C36642F659
:10382000E0638364704700BF5033002030B5124C12
:1038300004EBC012D56E05EBD57335F00205C3F36A
:10384000470310D103EB40131C3304EB83035A6886
:103850000A443C2AA8BF3C226FF03B018A42ACBF1D
:103860005A60596030BD134493F87C2082F0010205
:1038700083F87C20F6E700BF50330020034B03EBB6
:10388000C010C36DC3F10103C365704750330020FE
:10389000094B03EBC010436F90F87C2003F5807355
:1038A00043EAC24390F87D20806F43EA025300F55B
:1038B000807043EA802070475033002000487047F2
:1038C000170E0200034B8360C360034B0361034B7D
:1038D00043617047C8110200E40C02001E0E020092
:1038E000064B03EB0020836F0133042BA8BF00239A
:1038F000836742F6E0638364704700BFB84D0020E1
:1039000010B50F4C04EB0022936F032B08D043B982
:10391000D36E0B4483F30403D36642F6E0639364EF
:1039200010BD03EB80131B3354F82300084480F3CD
:10393000030044F82300002382F8A430EDE700BF21
:10394000B84D0020034B03EB0020C36DC3F101030E
:10395000C3657047B84D0020054B03EB0020436F53
:10396000026FC06EDB0243EA02231843704700BFB8
:10397000B84D002000487047310E02000023C36696
:10398000C0F88830036780F88C304367C0F8FC309B
:10399000074BC0F89830074BC0F89C30064BC0F876
:1039A000A0300122054B8267C0F8A430704700BFE9
:1039B00090050200390E02003D0E0200420E020088
:1039C000044B8360044BC360044B0361044B4361AD
:1039D000704700BF480E02004F0E0200C8110200DF
:1039E000600E0200064B03EB0020C36F0133052B72
:1039F000A8BF0023C36742F6E0638364704700BF3B
:103A0000B84F0020154B03EB0020C36F43B9C36EC2
:103A10000B4483F30403C36642F6E0638364704798
:103A2000012B09D0022B13D0032BF5D10029D4BFD1
:103A3000002101218167EFE7436F0B44182BA8BFDA
:103A400018236FF017029342ACBF43674267E3E766
:103A5000036F0B4483F302030367DDE7B84F0020D5
:103A6000034B03EB0020C36DC3F10103C365704733
:103A7000B84F0020054B03EB0020836F026FC06E30
:103A8000DB0143EA02131843704700BFB84F002020
:103A9000704770477047704710B5FF2104460120FA
:103AA00016F025FAFF2184F87000012016F01FFAA5
:103AB00000230F2284F87100E3666267A36710BDDC
:103AC00070B5FF210446012016F011FA00250726E3
:103AD00084F87400A667E566FF21012016F007FA56
:103AE000E66784F875002567C4F8805070BD70B52E
:103AF00000250426044680F8746080F876504FF65E
:103B0000FF71284616F0F3F90123A4F8700084F839
:103B1000756084F877304FF6FF71284616F0E7F9A4
:103B2000A4F8720070BD70B5044600F1700500F194
:103B300084061E21002016F0DAF945F8040FB5427C
:103B4000F7D1012384F88C3070BD4FF4DC73C0F8DA
:103B50008430037910B504460BB915F033F900230E
:103B600084F8553010BD10B5044616F03FF92046D4
:103B700010BDFFFF037910B543B1074B074C084A4E
:103B80001946C0E90243C0E9041210BD054C064BBA
:103B90000649074AF5E700BFC811020044070200C2
:103BA000720E0200800E0200900E0200A10E0200B2
:103BB000B30E0200044B997921B95A79D97182F078
:103BC00001025A71704700BFC0B1FF1F084B90221D
:103BD00002FB0030C36E0133022B02DD0023C366FB
:103BE00005E0C36603D190F87830002BF7D070471A
:103BF00050B7FF1F10B5264C902303FB0043DA6E2D
:103C00005AB9D3F884200A440C2AA8BF0C22012AEE
:103C1000B8BF0122C3F8842010BD012A1CD0022A9B
:103C2000FAD1D3F88C200A44082A26DC12F1080FB6
:103C3000C3F88C2023DB2AB3902303FB0043C3F893
:103C40008C20902303FB0044D4F88C30013304BF54
:103C50000123C4F88C30DFE7D3F888200A44B2F59A
:103C6000FA7FA8BF4FF4FA72082AB8BF0822C3F837
:103C70008820002283F87820CEE70822DCE76FF066
:103C80000702D9E70029CCBF01226FF00102D6E775
:103C900050B7FF1F0B4B7C2202FB0030836F2BB908
:103CA000036F0B4483F3080303677047012B08D1AC
:103CB000436F0B447F2BA8BF7F23042BB8BF042383
:103CC00043677047C40200200B4B842202FB003084
:103CD000436F43B9C36E0B44782BA8BF782323EA04
:103CE000E373C3667047036F0B44782BA8BF782338
:103CF00023EAE373036770473C19002010B5134CA7
:103D00008C2202FB0042D36E022B12DC232202FB28
:103D100000301C306FF0080254F820300B44092B9F
:103D2000A8BF09239342ACBF44F8203044F82020B8
:103D300010BDD36F0B441B2BA8BF1B236FF01A01C0
:103D40008B42ACBFD367D167F2E700BFBC1F002036
:103D5000104BA02202FB0030C36E012B0EDC184476
:103D600090F8983019440529A8BF052121EAE1718E
:103D7000012380F8981080F894307047D0F89C3078
:103D80000B447C2BA8BF7C23042BB8BF0423C0F8B2
:103D90009C3070475426002010B5164B7C2202FB45
:103DA0000030836F042B05D1436F0B4483F304036E
:103DB000436710BD012BCCBF012200221044CCBFB1
:103DC0000224002490F870201C1BA30042FA03F385
:103DD000194401F00F012CB922F00F02114380F8B1
:103DE0007010E6E702F00F0202EB011280F870207B
:103DF000DFE700BF9427002070470020704770471E
:103E0000002380F8E8314FF6FF73A0F8FC3190F8FA
:103E100088305BB91023C0F888300523C0F8903093
:103E20000B23C0F898300C23C0F89C3070477047C3
:103E300037B502AB03E90600012311461C461A46BA
:103E40008B4204DB009BD840104003B030BD04FA25
:103E500003F52A430133F3E7F0B5002387B00427C5
:103E6000CDE904370D4606AB13E9060006460E4CB5
:103E70002846FFF7DDFF04EB06240323E0661A461D
:103E80003946284603930297FFF7D2FF0123072202
:103E9000CDE9002320671A4607212846FFF7C8FF0F
:103EA000A06707B0F0BD00BFB84F0020F0B50023F9
:103EB00087B00827CDE904370D4606AB13E90600A5
:103EC00006460D4C2846FFF7B3FF04EB06240326F5
:103ED000E06632463946284602970396FFF7A8FF68
:103EE0000B232067324619462846CDE90036FFF7F6
:103EF0009FFF606707B0F0BDB84D002013B50022EA
:103F00001023CDE9002302AB0446084613E906005E
:103F1000FFF78EFF034B882202FB0433C3F88400B3
:103F200002B010BD98290020F0B5002387B0082604
:103F3000CDE904360D4606AB13E9060007460F4CE3
:103F40002846FFF775FF7C2303FB0744324684F8BD
:103F5000700031462846CDE90266FFF769FF042369
:103F60001022CDE9002384F871001A46102128465A
:103F7000FFF75EFF606707B0F0BD00BF9427002029
:103F8000F0B5002389B00826CDE906360D4608AB0A
:103F900013E906000746134C2846FFF749FF842320
:103FA00003FB0744324684F8740031462846CDE9C5
:103FB0000466FFF73DFF0326102384F875003246A0
:103FC00019462846CDE90236FFF732FF1323A067D2
:103FD000324619462846CDE90036FFF729FFE0674B
:103FE00009B0F0BD8C280020F0B5002387B004266E
:103FF000CDE904360D4606AB13E9060007460F4C23
:104000002846FFF715FFA02303FB0744324684F838
:10401000980031462846CDE90266FFF709FF0823DC
:1040200084F899001A4619462846CDE90033FFF76F
:10403000FFFEC4F89C0007B0F0BD00BF542600206E
:10404000F0B5002385B00826CDE902360D4604AB55
:1040500013E906000746094C2846FFF7E9FE8823C6
:1040600003FB07443246E06631462846CDE9006648
:10407000FFF7DEFE206705B0F0BD00BF441A002048
:10408000F0B5002385B00826CDE902360D4604AB15
:1040900013E906000746094C2846FFF7C9FE8423AA
:1040A00003FB07443246206731462846CDE90066C7
:1040B000FFF7BEFEE06605B0F0BD00BF3C19002072
:1040C000F0B5002385B00726CDE902360D4604ABD6
:1040D00013E9060007460A4C2846FFF7A9FE842389
:1040E00003FB07443246A4F8800031462846CDE958
:1040F0000066FFF79DFEA4F8820005B0F0BD00BF8A
:10410000341800202DE9FF47134E902404FB00646F
:1041100007468846703400254FF005090DF1080A5E
:10412000CDE9025940469AE80600FFF781FE0535C1
:10413000192D44F8040FF3D14A4629464046CDE9EB
:104140000059FFF775FE902303FB076686F87000A1
:1041500004B0BDE8F08700BFA4150020F0B500232F
:1041600085B01026CDE902360D460DEB060313E9A6
:1041700006000746094C2846FFF75AFE7C2303FB3E
:1041800007443246A4F8780031462846CDE9006657
:10419000FFF74EFEA4F87A0005B0F0BD0C13002026
:1041A00013B500221023CDE9002302AB04460846D4
:1041B00013E90600FFF73CFE034B702202FB0433B9
:1041C000A3F86E0002B010BDCC0E0020F0B50023A5
:1041D00087B00726CDE904360D4606AB13E9060085
:1041E0000746104C2846FFF723FECC2303FB074469
:1041F0003246C4F8C40031462846CDE90266FFF7CE
:1042000017FE04230E22CDE90023C4F8C8001A4685
:104210000E212846FFF70CFE0130C4F8C00007B09D
:10422000F0BD00BF340D002013B500220823CDE9F6
:1042300000236B440446084613E90600FFF7F8FD27
:10424000034B742202FB0433186702B010BD00BF99
:10425000A4040020F0B5002385B00826CDE902367D
:104260000D4604AB13E906000746094C2846FFF744
:10427000DFFD7C2303FB0744324620673146284696
:10428000CDE90066FFF7D4FD606705B0F0BD00BF63
:10429000C4020020F0B5002385B00826CDE902361F
:1042A0000D4604AB13E9060007460A4C2846FFF703
:1042B000BFFDBC2303FB07443246C4F8A4003146CB
:1042C0002846CDE90066FFF7B3FDC4F8A80005B0A5
:1042D000F0BD00BF4C010020F0B5002385B00B26D7
:1042E000CDE902360D4604AB13E9060007460A4C39
:1042F0002846FFF79DFD4FF4217303FB0744324628
:10430000C4F86C0231462846CDE90066FFF790FDFF
:10431000C4F8700205B0F0BD60EAFF1FF0B50023DD
:1043200089B00526CDE906360D4608AB13E906002F
:104330000746174C2846FFF77BFD902303FB0744F5
:10434000324684F88C0031462846CDE90466FFF7F2
:104350006FFD01260A2384F88D003246194628464F
:10436000CDE90236FFF764FD003818BF01200B23AA
:1043700084F88E00324619462846CDE90036FFF70C
:1043800057FD003818BF012084F88F0009B0F0BD38
:1043900040E9FF1F13B500220823CDE900236B4439
:1043A0000446084613E90600FFF742FD034B782256
:1043B00002FB0433D86602B010BD00BFBCCBFF1FA8
:1043C000F0B5002385B00726CDE902360D4604ABD3
:1043D00013E9060007460A4C2846FFF729FD7C230F
:1043E00003FB07443246A4F86C0031462846CDE969
:1043F0000066FFF71DFDA4F86E0005B0F0BD00BF1C
:10440000C4CAFF1FF0B5002385B00826CDE90236E7
:104410000D4604AB13E9060007462846FFF708FDE2
:10442000084C8C2303FB07442038E06632463146B3
:104430002846CDE90066FFF7FBFC2038206705B071
:10444000F0BD00BF38C9FF1FF0B5002385B00826B6
:10445000CDE902360D4604AB13E9060007460A4CC7
:104460002846FFF7E5FCBC2303FB07443246C4F8AB
:10447000AC0031462846CDE90066FFF7D9FCC4F808
:10448000B00005B0F0BD00BF70C6FF1FF0B500233F
:1044900087B00926CDE904360D4606AB13E90600C0
:1044A0000746114C2846FFF7C3FC40F2FC6303FBB0
:1044B00007443246A4F8F40631462846CDE90266A0
:1044C000FFF7B6FC01231222CDE90023A4F8F6067B
:1044D0001A4612212846FFF7ABFC003818BF01200E
:1044E00084F8EC0607B0F0BD78B8FF1FF0B50023E4
:1044F00087B00826CDE904360D4606AB13E9060061
:1045000007460F4C2846FFF793FC902303FB074414
:104510003246C4F8840031462846CDE90266FFF7EA
:1045200087FC1023C4F88800324619462846CDE996
:104530000036FFF77DFC0838C4F88C0007B0F0BDEA
:1045400050B7FF1F13B500220723CDE9002302ABAC
:104550000446084613E90600FFF76AFC034B742281
:1045600002FB0433D86602B010BD00BF68B6FF1F5F
:10457000F0B5002389B00927CDE906370D4608AB11
:1045800013E9060006462846FFF752FC124C04EBDE
:10459000C6140A23A0F58070A0673A46194628463B
:1045A000CDE90437FFF744FC06261323A0F58070FD
:1045B000E067324619462846CDE90236FFF738FC57
:1045C00019232067324619462846CDE90036FFF701
:1045D0002FFC606709B0F0BDC0B0FF1FF0B50F4CF5
:1045E0004FF4DA7385B003FB004408260023CDE9BD
:1045F00002360D4604AB13E906002846FFF718FC07
:10460000276F324687F8010431462846CDE9006617
:10461000FFF70EFCC4F8AC0105B0F0BD30ABFF1FD6
:10462000F0B5002385B00826CDE902360D4604AB6F
:1046300013E9060007460A4C2846FFF7F9FB9023CA
:1046400003FB07443246C4F8880031462846CDE9CA
:104650000066FFF7EDFBC4F88C0005B0F0BD00BFAD
:10466000C8A8FF1F83034FF4F05293FBF2F34B43B0
:104670009B1304D49942A8BF1946084670470020EE
:10468000704700290346B8BF494200200A22012B87
:1046900000DC70479942BCBF0630C0B293FBF2F316
:1046A000F5E7FFFF07B5082300920A4601460348D5
:1046B00014F0C8FF03B05DF804FB00BFE065002004
:1046C000002070474388202B30B513D15C4AB0F9E5
:1046D0000430D2F8EC130B44062BA8BF062323EAC0
:1046E000E373C2F8EC33002382F8EA3342F6E06366
:1046F000536230BD402BFCD1514BB0F90410D3F8BC
:10470000EC5393F8F00393F8EA23052D00F3888027
:1047100000EB400005EB4005EDB2242000FB053026
:10472000D0F80044D2B90C440B2CA8BF0B2424EAC7
:10473000E474C0F8004480F8FC23242000FB05301A
:10474000032AD0F8004420D1012CC1BFD0F80C447A
:10475000641884F30404C0F80C4416E0012A0BD05A
:10476000022AEAD1012C10DDD0F808440C4484F36D
:104770000404C0F8084408E0002C06DDD0F8044426
:104780000C4484F30404C0F80444242000FB0533E3
:10479000D3F800040B28ACD1042A0ED1D3F810248E
:1047A0000A44092AA8BF09226FF008018A42ACBF57
:1047B000C3F81024C3F810149BE7052A12D0062A68
:1047C0001FD0072A95D1D3F81C240A441B2AA8BF5E
:1047D0001B226FF01A018A42ACBFC3F81C24C3F835
:1047E0001C1486E7D3F814240A44092AA8BF092216
:1047F0006FF008018A42ACBFC3F81424C3F8141444
:1048000077E7D3F818240A44092AA8BF09226FF0D1
:1048100008018A42ACBFC3F81824C3F8181468E72B
:1048200002EB8002D2B202F5EB7203EB82035A680C
:104830000A44052AA8BF052222EAE2725A6058E714
:104840008C050020054B742202FB00331A6F92F98D
:104850001230D089013B40EA03407047BC0300207E
:10486000094B902202FB003090F88E3090F88D209A
:104870009B0243EA421390F88C2090F88F00134378
:1048800043EAC020704700BF40E9FF1F2DE9F04315
:10489000002685B04FF00309CDE90269884604ABD4
:1048A00013E906000446164D4046FFF7C1FA7C277F
:1048B00007FB045704231A463867494640460193CC
:1048C000CDF80090FFF7B4FA324678673346D1B29C
:1048D000884202F101020EDAC0F10D0293407C22FF
:1048E00002FB04556FEA83436FEA9343A5F87A30DD
:1048F00005B0BDE8F0835B009BB243F00103E6E73F
:10490000ACCCFF1F80397F23890291FBF3F1484330
:1049100020F47F7020F003007047FF2903D1003896
:1049200018BF0120704700207047FFFF13B54B08E8
:1049300001F001015B0101EB41011C33C9000728B3
:10494000DBB201F11D0412D800F00302800800EB75
:10495000400002EB820240005200043000941B32FF
:1049600000F0FE010A4814F043FF02B010BD0D280C
:10497000FBD8A0F10801C1F3460100F0010000EBF3
:1049800040004901C2002D3100941D32C9B2E9E74F
:10499000E06500200144014814F054BEE0650020A9
:1049A00007B500930823FFF7F5FF03B05DF804FB9C
:1049B0000144014814F025BFE065002010B49DF8C3
:1049C000084002940344014410BC014814F086BE20
:1049D000E065002010B49DF808400134E4B2029470
:1049E0000344014410BC014814F078BEE065002087
:1049F00003440144014814F0FBBE00BFE065002001
:104A00000144014814F046BCE0650020014401481F
:104A100014F0F3BDE0650020D310014401EBC31195
:104A2000044B186802F0070201239340425C1343D1
:104A300043547047E06500202DE9F0410A4FDFF84C
:104A40002C800C460026062390FBF3F5AE4205DBD6
:104A500021460648BDE8F04115F0B1B83946404658
:104A600015F039F80136F1E7C7110200E0650020C2
:104A700010B4044C08446060A2602046194610BC83
:104A800015F09DB8E065002037B5184C00250146AB
:104A90000F232046A360656015F01DF828230093BE
:104AA000294620463023172214F0A7FD2022009229
:104AB000294620462F2314F09BFE2A2200922946E5
:104AC00020462F2314F094FE3422009229462046DB
:104AD0002F2314F08DFE0923009318222E23012189
:104AE000204614F09CFC03B030BD00BFE065002000
:104AF00038B50E4C0E4A0F213820FFF7D3FD422562
:104B00000F2320460B49A360656014F0E4FF1921D0
:104B10003820094AFFF7C6FD19236560A3602046C7
:104B20000649BDE8384014F0D6BF00BFE06500205C
:104B3000A03C0200C30E0200503D0200CC0E020059
:104B400030B581EAE1740246A4EBE17400200A2545
:104B5000012A05DC002902DA08B10638C0B230BDEE
:104B60009442BCBF831DD8B292FBF5F2F0E7FFFF81
:104B70002DE9F0410A4FDFF82C800C460026062371
:104B800090FBF3F5AE4205DB21460648BDE8F04157
:104B900015F015B83946404614F09DFF0136F1E78F
:104BA000C7110200E0650020002837B505DD0B4481
:104BB00003480092013B14F01BFE03B030BD00BF60
:104BC000E0650020B0F84620034612EA01001CBF51
:104BD0008A43A3F8462093F8482018BF01201AB151
:104BE000002183F8481010467047002070470020CD
:104BF0007047002070470020704700207047002059
:104C000070470020704700207047002070477047B1
:104C100000207047704700207047704700207047A1
:104C20007047704770477047704770470020704763
:104C30007047704770477047704770470020704753
:104C400000207047002070477047704770477047DA
:104C5000704770477047704770477047704770479C
:104C60007047704770477047704770477047FFFF45
:104C700030B5174C7C2303FB0043DA6E2AB91A6F58
:104C8000521A82F303021A6730BD5A6F0A440D2A82
:104C9000A8BF0D22012AB8BF012200215A670B4686
:104CA000CDB2AA4201F101010CDAC2F10D0293402A
:104CB0007C2202FB00446FEA83436FEA9343A4F82B
:104CC0007A30E1E75B009BB243F00103E8E700BF05
:104CD000ACCCFF1F0A4B742202FB00331B6FDA8936
:104CE000114489B2B1F5967F28BF4FF496710A2915
:104CF00038BF0A21034AD981B2FBF1F21A6070472A
:104D0000BC03002040420F007FB5194B742202FB08
:104D1000003310261C6F0023CDE902360D460DEB43
:104D2000060313E906002846FFF782F883B2B3F5BD
:104D3000967F28BF4FF496730A2B38BF0A23E3816E
:104D40000C4AB2FBF3F20523226031461A4628468C
:104D500000960193FFF76CF8013040B2002805DDA2
:104D60001828A8BF1820A07404B070BD0120FAE76D
:104D7000BC03002040420F00052910B510D8094C93
:104D8000182303FB014463689A4203DBA368934240
:104D9000A8BF134650F821209A4218BF40F821308E
:104DA00010BD00BFD8730200952910B510D8094C6A
:104DB000182303FB014463689A4203DBA368934210
:104DC000A8BF134650F821209A4218BF40F821305E
:104DD00010BD00BF70420200D72910B510D8094C91
:104DE000182303FB014463689A4203DBA3689342E0
:104DF000A8BF134650F821209A4218BF40F821302E
:104E000010BD00BF985F02002DE9FF4190F80480BB
:104E1000254D0446B8F1000F37D114F011F80028E1
:104E200033D0D4E91C6714F01BF817F08FFD32461D
:104E30003B4617F04FFC2B680193D4F88020019B70
:104E40000646A06F9B1A40F2EE220F4601309342B5
:104E5000C4E91C67A06721D917F078FD02460B460C
:104E60003046394617F016FF17F0FCFF14F012F821
:104E700000230022C4E91C232B680393039BE067F3
:104E8000C4F87880C4F8803008E02B680293D4F826
:104E90008020029B9B1A054A934202D804B0BDE8C9
:104EA000F0810023E367F9E700660020A086010097
:104EB0000C2305325A43154B01EBC211F0B5B1F585
:104EC000705F1E684FF00B03A8BF4FF4705143434F
:104ED00021EAE1714FF4C065B1FBF5F4A4EB84075E
:104EE0001A1911EB472136F8122008D00134234457
:104EF00036F813309B1A4B4393FBF5F31A44044BDB
:104F000082F3100243F82020F0BD00BFD4A4FF1F9D
:104F1000D8A4FF1F064B0B22053102FB00111B68B2
:104F2000044A33F8113083F3100342F820307047FD
:104F3000D4A4FF1FD8A4FF1F10B5014604460020CB
:104F4000FFF7E8FF21460120FFF7E4FF214602209A
:104F5000FFF7E0FF21460320FFF7DCFF10BDFFFF56
:104F6000094B01685A684368D21A4B689A428B68A9
:104F700038BF4A609A420B6888BF8A60C3EBC3039C
:104F80001344DB080B607047001000E0044B1B6803
:104F900033F81020034B53F82000A2EB1020704789
:104FA00044A3FF1FBCA4FF1F064B07491A6832F831
:104FB000103051F82000A3EB102013895843001340
:104FC000704700BF44A3FF1FACA4FF1FF8B5054600
:104FD0000C468E18B44200D1F8BD284614F0CEFF1E
:104FE00014F8017B874203D03946284614F0DAFFD3
:104FF0000135EFE770B50C468D18461AAC4200D16A
:1050000070BD301914F0BAFF04F8010BF6E7FFFF8A
:1050100010B51AB14FF0FF33036006E0036823B107
:10502000034C6143994201D9026010BD5B1AF3E75A
:10503000F47E1D00037807B543B141680B2300934C
:1050400082680448C1F1800314F0E9F903B05DF807
:1050500004FB00BFE065002090F85C308B421CBF71
:105060000023436690F84C3018BF80F85C108B42E8
:105070001EBF002380F84C104365704738B5054CBF
:1050800025682DB9082015F0E5F805604560206019
:10509000206838BDC8A7FF1F244B42681B689B1AB5
:1050A00044F2191293422DE9F34105463BD8204CB6
:1050B0002B230093204652230722112114F04CF990
:1050C0002A230822009320465023122114F095FA37
:1050D00014274FF00A082046164967601E26C4F8B8
:1050E000088014F0F8FC204613496660A76014F0AD
:1050F000F2FC204611496660A66014F0ECFC2823FF
:1051000020460F49A360666014F0E5FC2B680D494A
:10511000676008FB03F33B442046A36002B0BDE890
:10512000F04114F0D8BC02B0BDE8F081CC460020BC
:10513000E0650020D50E0200DC0E0200E60E020043
:10514000F00E0200FB0E020010B540F8031B002316
:105150008B4200DB10BDD45C00F8014F0133F7E750
:105160002DE9F04305460846C1F1FF21002301F572
:105170007F0150F803CB93B01A461C46FD314FF027
:10518000010E0E18B4452CDD072A10F8016F16D158
:1051900003F148026A4401AF02F83C4C01229C181A
:1051A0000DF1480959FA84F4013217F8018B04F81B
:1051B0003C8C082AF3D108330022DBB214463706B0
:1051C00044BF0EFA02F7E41902F148076F4444BFE6
:1051D00006F07F06E4B20132342B07F8446CD2B2F9
:1051E000CFD9581C48336B44C0B203F83C4C01ACD7
:1051F0000023C1189A42C9B207DC284603AAFFF768
:10520000A3FF284613B0BDE8F0834831694414F881
:10521000016B01F83C6C0133EBE7FFFF10B504466E
:10522000002015F077FE40B1054B1B78072B05D108
:10523000236820465B689847012010BD0020FCE7EA
:1052400084680020034808B583790BB1FFF7E6FFB7
:1052500008BD00BFC0B1FF1F84B000B591B013A856
:1052600080E80E0047F6F053ADF8043062238DF865
:1052700006309DF88C308DF80730084604210B1F4E
:105280000A46DBB2013140328342C9B26A440DDBC7
:10529000F72302F83C3C01A8002215F0CFFD15F0E1
:1052A00021FE11B05DF804EB04B0704748336B4445
:1052B0001B7A02F83C3CE2E72DE9F04F8379B9B064
:1052C000804673B9C3714379002B15BF00270427AB
:1052D0004FF0040A4FF0400A7E010DF1A009574536
:1052E00002D139B0BDE8F08F0FAD06F120048DF882
:1052F0003C7088F80770AB46A4B2304614F03EFE0E
:105300000136B6B2A64205F8010FF6D15A46212160
:1053100018A8FFF719FF18A94846FFF721FF4223F5
:105320000D932BAD0FCD6C460FC40FCD0FC40FCD19
:105330000FC42B68236099E80E0040460137FFF741
:105340008BFFFFB2CBE7FFFF08B50378012B09D134
:105350004388042B07D1074B9A7982F001029A7196
:105360000022DA7108BD082BFCD10248FFF7A4FF28
:10537000F8E700BFC0B1FF1FF0B590F8F033B9B047
:10538000054603EB430040000EACC0B200262246A7
:105390004FF0240C8119C9B20CFB01510136D1F830
:1053A00000E4D1F8047447EA0E172770D1F808E436
:1053B000D1F80C7447EA0E176770D1F81074803F6B
:1053C000A770D1F81474803FE770D1F81874D1F841
:1053D0001C14803F8039062E2771617104F1060488
:1053E000D8D11B0103F47C732B4428AFD3F85C079E
:1053F000D3F8601741EA00118DF85C10D3F86417F8
:10540000D3F8683718A843EA011326218DF85D30D8
:10541000FFF79AFE18A93846FFF7A2FE4E230D9318
:105420002BAE0FCE6C460FC40FCE0FC40FCE0FC4E1
:105430003368236097E80E0005F18000FFF70CFF4A
:1054400039B0F0BDA0F1800096E7FFFFF0B590F90C
:1054500086201C4B2821064601FB02F0C418B9B077
:10546000185AADF83C00234660688DF83E000FAC3A
:1054700006330321224633F9020FE0700231C0F3F4
:1054800007202329207104F10204F4D118A828AFC1
:10549000FFF75AFE18A93846FFF762FE45230D9321
:1054A0002BAD0FCD6C460FC40FCD0FC40FCD0FC465
:1054B0002B68236097E80E0006F18000FFF7CCFE12
:1054C00039B0F0BD28A7FF1FA0F18000BEE700BFE4
:1054D00008B510B90148FFF7B9FF08BD5C5A0020B4
:1054E0002DE9F043DFF86C80B9B08146002628AF83
:1054F0000FA88DF83C604346012102461C78447099
:1055000002315C7800F8024F212903F10203F5D142
:1055100018A8FFF719FE18A93846FFF721FE5723F0
:105520000D932BAD0FCD6C460FC40FCD0FC40FCD17
:105530000FC42B68236097E80E0009F18000013644
:10554000FFF78AFE042E08F10808D1D139B0BDE872
:10555000F08300BF68360020A0F18000C0E700BFE4
:10556000D0F80833F0B503EB8303DB00DBB203F1C3
:105570008043B9B02133064600EB83030EA86FF0D9
:105580000F01024653F8044F072901F1010198BFAA
:105590001834182900F8014BF4D118A828AF282195
:1055A000FFF7D2FD18A93846FFF7DAFD4D230D931A
:1055B0002BAD0FCD6C460FC40FCD0FC40FCD0FC454
:1055C0002B68236097E80E003046FFF745FE39B0A0
:1055D000F0BDFFFF08B510B90148FFF7C1FF08BDD6
:1055E000EC4600202DE9F04FDFF8E880B9B0054621
:1055F000002728AED5F888308DF83D30D5F88C30AE
:105600008DF83E300FAB8DF83C70404603219B4631
:1056100030F9022BDA700231C2F3072223291A7102
:1056200003F10203F4D15A4618A8FFF78DFD4FF09D
:10563000440A18A93046FFF793FDCDF834A00DF1C8
:10564000AC0CBCE80F006C460FC4BCE80F000FC4E4
:10565000BCE80F000FC4DCF80030236005F18009BE
:1056600096E80E0048460137FFF7F6FD042F08F1D3
:105670002008BFD1D5F888308DF83D30D5F88C3072
:105680008DF83E30D5F890308DF83F305A46D5F839
:1056900094308DF8403018A805218DF83C70FFF744
:1056A00053FD18A93046FFF75BFD2BADCDF834A0B4
:1056B0000FCD6C460FC40FCD0FC40FCD0FC42B6898
:1056C000236096E80E004846FFF7C6FD39B0BDE8F6
:1056D000F08F00BF28A6FF1FA0F1800082E700BF67
:1056E000012808B503D10548FEF78AFB08BD00284C
:1056F000FCD10248FFF776FFF8E700BF4424002002
:105700002DE9F0412E4B16465A787D2ABEB005464B
:105710000F4651D19A78622A4ED1DA78B24248D1F6
:10572000684603330021024613F8014FF72C05D0D9
:105730000131C9B23C2900F8014BF5D11EA8FFF791
:1057400003FD0023DDF878800DF17B0E19461C4621
:10575000184643450FDB0FAA2EA8FFF7F5FC2E9A3B
:105760002FA922EAE272384614F042FC2E71012081
:105770003EB0BDE8F0811EF8012F94B104F1FF3C6A
:1057800040FA0CFC1CF0010F01F1010C01F1F801D1
:10579000694418BF42F0800201F8BC2C5FFA8CF11A
:1057A000024601343D2904F00704D4D001331046E9
:1057B000CFE702710020DBE700202871D8E700BFA7
:1057C0006067002070B58AB00446572201A9803076
:1057D000FFF796FFE8B19DF804100F4D8900C9B29C
:1057E00001AA00200B18DBB2567805F813600130CF
:1057F00005EB430312F8026F5E701028F2D100230C
:10580000C4F88C302368DB6820460AB0BDE87040DD
:1058100018470AB070BD00BF68360020A0F18000B4
:10582000D0E700BF10B58AB00446442201A98030F9
:10583000FFF766FF08B39DF80420032A1FDC9DF8DC
:1058400005301849C4F888309DF80630C4F88C300B
:1058500001EB421101AB00201C79DA7842EA042204
:10586000B2F5F05F00F10100A8BF4FF4F05210282C
:1058700021F8022B03F10203EED10AB010BD042A75
:10588000FBD19DF80530C4F888309DF80630C4F887
:105890008C309DF80730C4F890309DF80830C4F87B
:1058A0009430EAE728A6FF1FA0F18000BAE700BF06
:1058B000F0B58BB004464E2269468030FFF720FFDA
:1058C00000284FD094F8F01301EB41056D00002043
:1058D000EDB26A464FF0240C07462B181678DBB25F
:1058E0000CFB03434FEA161E06F00F06C3F80464D0
:1058F0005678C3F800E44FEA161E06F00F06C3F808
:105900000C649678C3F808E4803EC3F81064D67837
:1059100083F8FC73803EC3F814641679A3F8FE7311
:10592000803EC3F8186456790130803E0628C3F8DB
:105930001C6402F10602D0D109019DF8243001F463
:105940007C710C441A0903F00F03C4F860379DF80A
:105950002530C4F85C271A0903F00F03C4F8642744
:10596000C4F868370BB0F0BDA0F18000A0E70028B4
:1059700010B515DD20304FF4C06490FBF4F204FB49
:10598000120000284FF00C0302FB03F3B8BF7F3076
:1059900003EBE01008443C3080F30700C0B210BDB8
:1059A00018BF2038E7E70C23B0FBF3F203FB12002B
:1059B000C0B203FB020008443C38C0017047FFFF3F
:1059C00073B52F4C0A22054600927F230021204602
:1059D00013F00EFF0C2200927F230021204613F0CB
:1059E00007FF002601232749A3602046666014F0C4
:1059F00072F80F23AA796660A360EB7902B3D3B182
:105A00002149204614F067F8EB790822043300920C
:105A10005B0021223146204613F03CFC00236360EA
:105A2000AB793726A66083B11849154802B0BDE8A6
:105A3000704014F050B81649204614F04CF8EDE7C9
:105A40000BB11449F8E71449F6E714490C4814F06F
:105A500042F84E2312490A486360A66014F03BF8EE
:105A600006231049636006482323A36014F033F82B
:105A700069790D4A0D4B002914BF11461946D4E728
:105A8000E0650020030F0200140F0200470F020020
:105A9000210F02002E0F0200340F0200500F0200EF
:105AA0005A0F0200630F020001140200FE0E0200F2
:105AB00008B50248FFF784FF08BD00BFC0B1FF1F53
:105AC000FFF7F6BF00220368426042618260826194
:105AD000C260C2610261026242F6E0621B68426219
